{
  "contractName": "ScoreStore",
  "abi": [
    {
      "constant": false,
      "inputs": [
        {
          "name": "name",
          "type": "string"
        },
        {
          "name": "startingScore",
          "type": "int256"
        }
      ],
      "name": "addPersonScore",
      "outputs": [],
      "payable": false,
      "stateMutability": "nonpayable",
      "type": "function",
      "signature": "0x7a072e5e"
    },
    {
      "constant": true,
      "inputs": [
        {
          "name": "name",
          "type": "string"
        }
      ],
      "name": "getScore",
      "outputs": [
        {
          "name": "",
          "type": "int256"
        }
      ],
      "payable": false,
      "stateMutability": "view",
      "type": "function",
      "signature": "0x16020273"
    }
  ],
  "bytecode": "0x608060405234801561001057600080fd5b5061038b806100206000396000f3fe60806040526004361061004c576000357c0100000000000000000000000000000000000000000000000000000000900463ffffffff16806316020273146100515780637a072e5e1461012d575b600080fd5b34801561005d57600080fd5b506101176004803603602081101561007457600080fd5b810190808035906020019064010000000081111561009157600080fd5b8201836020820111156100a357600080fd5b803590602001918460018302840111640100000000831117156100c557600080fd5b91908080601f016020809104026020016040519081016040528093929190818152602001838380828437600081840152601f19601f8201169050808301925050505050505091929192905050506101ff565b6040518082815260200191505060405180910390f35b34801561013957600080fd5b506101fd6004803603604081101561015057600080fd5b810190808035906020019064010000000081111561016d57600080fd5b82018360208201111561017f57600080fd5b803590602001918460018302840111640100000000831117156101a157600080fd5b91908080601f016020809104026020016040519081016040528093929190818152602001838380828437600081840152601f19601f82011690508083019250505050505050919291929080359060200190929190505050610273565b005b600080826040518082805190602001908083835b6020831015156102385780518252602082019150602081019050602083039250610213565b6001836020036101000a0380198251168184511680821785525050505050509050019150509081526020016040518091039020549050919050565b600080836040518082805190602001908083835b6020831015156102ac5780518252602082019150602081019050602083039250610287565b6001836020036101000a03801982511681845116808217855250505050505090500191505090815260200160405180910390205413156102eb57600080fd5b806000836040518082805190602001908083835b60208310151561032457805182526020820191506020810190506020830392506102ff565b6001836020036101000a038019825116818451168082178552505050505050905001915050908152602001604051809103902081905550505056fea165627a7a723058207dc58ddfd4c1aec366c70cb8106c48af5439ef109acb9cf106bc3d4f2aaa40e60029",
  "source": "pragma solidity >=0.4.21 <0.6.0;\n\ncontract ScoreStore {\n\n  mapping(string => int) personScores;\n\n  function addPersonScore(string memory name, int startingScore) public {\n      if(personScores[name]>0){\n        revert();\n      }else{\n        personScores[name] = startingScore;\n      }\n  }\n\n  function getScore(string memory name) public view returns (int) {\n    return personScores[name];\n  }\n}",
  "sourcePath": "/Users/lolo/Desktop/workspace/blockchain-ethereum/_003_ScoreStoreCloud/contracts/ScoreStore.sol",
  "compiler": {
    "name": "solc",
    "version": "0.5.0+commit.1d4f565a.Emscripten.clang"
  },
  "schemaVersion": "3.0.6",
  "updatedAt": "2019-04-09T19:36:12.345Z",
  "devdoc": {
    "methods": {}
  },
  "userdoc": {
    "methods": {}
  }
}